{
  "address": "0x67e5e7871A38A9d6a214B96dE1aB7c8f9508a489",
  "abi": [
    {
      "inputs": [
        {
          "internalType": "string",
          "name": "_baseURI",
          "type": "string"
        }
      ],
      "stateMutability": "nonpayable",
      "type": "constructor"
    },
    {
      "inputs": [],
      "name": "ApprovalCallerNotOwnerNorApproved",
      "type": "error"
    },
    {
      "inputs": [],
      "name": "ApprovalQueryForNonexistentToken",
      "type": "error"
    },
    {
      "inputs": [],
      "name": "BalanceQueryForZeroAddress",
      "type": "error"
    },
    {
      "inputs": [],
      "name": "MintERC2309QuantityExceedsLimit",
      "type": "error"
    },
    {
      "inputs": [],
      "name": "MintToZeroAddress",
      "type": "error"
    },
    {
      "inputs": [],
      "name": "MintZeroQuantity",
      "type": "error"
    },
    {
      "inputs": [],
      "name": "NFTIsERC721A_NftsWalletExceeded",
      "type": "error"
    },
    {
      "inputs": [],
      "name": "NFTIsERC721A_NotEnoughFunds",
      "type": "error"
    },
    {
      "inputs": [],
      "name": "NFTIsERC721A_NotOwner",
      "type": "error"
    },
    {
      "inputs": [],
      "name": "NFTIsERC721A_QueryForNonExistentToken",
      "type": "error"
    },
    {
      "inputs": [],
      "name": "NFTIsERC721A_SupplyExceeded",
      "type": "error"
    },
    {
      "inputs": [],
      "name": "OwnerQueryForNonexistentToken",
      "type": "error"
    },
    {
      "inputs": [],
      "name": "OwnershipNotInitializedForExtraData",
      "type": "error"
    },
    {
      "inputs": [],
      "name": "TransferCallerNotOwnerNorApproved",
      "type": "error"
    },
    {
      "inputs": [],
      "name": "TransferFromIncorrectOwner",
      "type": "error"
    },
    {
      "inputs": [],
      "name": "TransferToNonERC721ReceiverImplementer",
      "type": "error"
    },
    {
      "inputs": [],
      "name": "TransferToZeroAddress",
      "type": "error"
    },
    {
      "inputs": [],
      "name": "URIQueryForNonexistentToken",
      "type": "error"
    },
    {
      "anonymous": false,
      "inputs": [
        {
          "indexed": true,
          "internalType": "address",
          "name": "owner",
          "type": "address"
        },
        {
          "indexed": true,
          "internalType": "address",
          "name": "approved",
          "type": "address"
        },
        {
          "indexed": true,
          "internalType": "uint256",
          "name": "tokenId",
          "type": "uint256"
        }
      ],
      "name": "Approval",
      "type": "event"
    },
    {
      "anonymous": false,
      "inputs": [
        {
          "indexed": true,
          "internalType": "address",
          "name": "owner",
          "type": "address"
        },
        {
          "indexed": true,
          "internalType": "address",
          "name": "operator",
          "type": "address"
        },
        {
          "indexed": false,
          "internalType": "bool",
          "name": "approved",
          "type": "bool"
        }
      ],
      "name": "ApprovalForAll",
      "type": "event"
    },
    {
      "anonymous": false,
      "inputs": [
        {
          "indexed": true,
          "internalType": "uint256",
          "name": "fromTokenId",
          "type": "uint256"
        },
        {
          "indexed": false,
          "internalType": "uint256",
          "name": "toTokenId",
          "type": "uint256"
        },
        {
          "indexed": true,
          "internalType": "address",
          "name": "from",
          "type": "address"
        },
        {
          "indexed": true,
          "internalType": "address",
          "name": "to",
          "type": "address"
        }
      ],
      "name": "ConsecutiveTransfer",
      "type": "event"
    },
    {
      "anonymous": false,
      "inputs": [
        {
          "indexed": true,
          "internalType": "address",
          "name": "from",
          "type": "address"
        },
        {
          "indexed": true,
          "internalType": "address",
          "name": "to",
          "type": "address"
        },
        {
          "indexed": true,
          "internalType": "uint256",
          "name": "tokenId",
          "type": "uint256"
        }
      ],
      "name": "Transfer",
      "type": "event"
    },
    {
      "inputs": [
        {
          "internalType": "address",
          "name": "",
          "type": "address"
        }
      ],
      "name": "amountNFTsPerWallet",
      "outputs": [
        {
          "internalType": "uint256",
          "name": "",
          "type": "uint256"
        }
      ],
      "stateMutability": "view",
      "type": "function"
    },
    {
      "inputs": [
        {
          "internalType": "address",
          "name": "to",
          "type": "address"
        },
        {
          "internalType": "uint256",
          "name": "tokenId",
          "type": "uint256"
        }
      ],
      "name": "approve",
      "outputs": [],
      "stateMutability": "payable",
      "type": "function"
    },
    {
      "inputs": [
        {
          "internalType": "address",
          "name": "owner",
          "type": "address"
        }
      ],
      "name": "balanceOf",
      "outputs": [
        {
          "internalType": "uint256",
          "name": "",
          "type": "uint256"
        }
      ],
      "stateMutability": "view",
      "type": "function"
    },
    {
      "inputs": [
        {
          "internalType": "uint256",
          "name": "tokenId",
          "type": "uint256"
        }
      ],
      "name": "getApproved",
      "outputs": [
        {
          "internalType": "address",
          "name": "",
          "type": "address"
        }
      ],
      "stateMutability": "view",
      "type": "function"
    },
    {
      "inputs": [],
      "name": "getBaseURI",
      "outputs": [
        {
          "internalType": "string",
          "name": "",
          "type": "string"
        }
      ],
      "stateMutability": "view",
      "type": "function"
    },
    {
      "inputs": [],
      "name": "getOwner",
      "outputs": [
        {
          "internalType": "address",
          "name": "",
          "type": "address"
        }
      ],
      "stateMutability": "view",
      "type": "function"
    },
    {
      "inputs": [],
      "name": "getPrice",
      "outputs": [
        {
          "internalType": "uint256",
          "name": "",
          "type": "uint256"
        }
      ],
      "stateMutability": "pure",
      "type": "function"
    },
    {
      "inputs": [
        {
          "internalType": "address",
          "name": "owner",
          "type": "address"
        },
        {
          "internalType": "address",
          "name": "operator",
          "type": "address"
        }
      ],
      "name": "isApprovedForAll",
      "outputs": [
        {
          "internalType": "bool",
          "name": "",
          "type": "bool"
        }
      ],
      "stateMutability": "view",
      "type": "function"
    },
    {
      "inputs": [],
      "name": "name",
      "outputs": [
        {
          "internalType": "string",
          "name": "",
          "type": "string"
        }
      ],
      "stateMutability": "view",
      "type": "function"
    },
    {
      "inputs": [
        {
          "internalType": "uint256",
          "name": "tokenId",
          "type": "uint256"
        }
      ],
      "name": "ownerOf",
      "outputs": [
        {
          "internalType": "address",
          "name": "",
          "type": "address"
        }
      ],
      "stateMutability": "view",
      "type": "function"
    },
    {
      "inputs": [
        {
          "internalType": "uint256",
          "name": "quantity",
          "type": "uint256"
        }
      ],
      "name": "publicMint",
      "outputs": [],
      "stateMutability": "payable",
      "type": "function"
    },
    {
      "inputs": [
        {
          "internalType": "address",
          "name": "from",
          "type": "address"
        },
        {
          "internalType": "address",
          "name": "to",
          "type": "address"
        },
        {
          "internalType": "uint256",
          "name": "tokenId",
          "type": "uint256"
        }
      ],
      "name": "safeTransferFrom",
      "outputs": [],
      "stateMutability": "payable",
      "type": "function"
    },
    {
      "inputs": [
        {
          "internalType": "address",
          "name": "from",
          "type": "address"
        },
        {
          "internalType": "address",
          "name": "to",
          "type": "address"
        },
        {
          "internalType": "uint256",
          "name": "tokenId",
          "type": "uint256"
        },
        {
          "internalType": "bytes",
          "name": "_data",
          "type": "bytes"
        }
      ],
      "name": "safeTransferFrom",
      "outputs": [],
      "stateMutability": "payable",
      "type": "function"
    },
    {
      "inputs": [
        {
          "internalType": "address",
          "name": "operator",
          "type": "address"
        },
        {
          "internalType": "bool",
          "name": "approved",
          "type": "bool"
        }
      ],
      "name": "setApprovalForAll",
      "outputs": [],
      "stateMutability": "nonpayable",
      "type": "function"
    },
    {
      "inputs": [
        {
          "internalType": "string",
          "name": "_baseURI",
          "type": "string"
        }
      ],
      "name": "setBaseURI",
      "outputs": [],
      "stateMutability": "nonpayable",
      "type": "function"
    },
    {
      "inputs": [
        {
          "internalType": "bytes4",
          "name": "interfaceId",
          "type": "bytes4"
        }
      ],
      "name": "supportsInterface",
      "outputs": [
        {
          "internalType": "bool",
          "name": "",
          "type": "bool"
        }
      ],
      "stateMutability": "view",
      "type": "function"
    },
    {
      "inputs": [],
      "name": "symbol",
      "outputs": [
        {
          "internalType": "string",
          "name": "",
          "type": "string"
        }
      ],
      "stateMutability": "view",
      "type": "function"
    },
    {
      "inputs": [
        {
          "internalType": "uint256",
          "name": "_tokenId",
          "type": "uint256"
        }
      ],
      "name": "tokenURI",
      "outputs": [
        {
          "internalType": "string",
          "name": "",
          "type": "string"
        }
      ],
      "stateMutability": "view",
      "type": "function"
    },
    {
      "inputs": [],
      "name": "totalSupply",
      "outputs": [
        {
          "internalType": "uint256",
          "name": "",
          "type": "uint256"
        }
      ],
      "stateMutability": "view",
      "type": "function"
    },
    {
      "inputs": [
        {
          "internalType": "address",
          "name": "from",
          "type": "address"
        },
        {
          "internalType": "address",
          "name": "to",
          "type": "address"
        },
        {
          "internalType": "uint256",
          "name": "tokenId",
          "type": "uint256"
        }
      ],
      "name": "transferFrom",
      "outputs": [],
      "stateMutability": "payable",
      "type": "function"
    }
  ],
  "transactionHash": "0x8a4187c7019c1175f88c5242b84a9631afedadf0b0b73c47ef6c8ea5c6c997b3",
  "args": [
    "ipfs://CID/"
  ],
  "numDeployments": 6,
  "solcInputHash": "940394e0a4289c334e6638edda4d1083",
  "bytecode": "0x60a06040523480156200001157600080fd5b5060405162002d3138038062002d318339818101604052810190620000379190620002c4565b6040518060400160405280600681526020017f42656e20424b00000000000000000000000000000000000000000000000000008152506040518060400160405280600381526020017f42424b00000000000000000000000000000000000000000000000000000000008152508160029081620000b4919062000560565b508060039081620000c6919062000560565b50620000d76200012c60201b60201c565b60008190555050503373ffffffffffffffffffffffffffffffffffffffff1660808173ffffffffffffffffffffffffffffffffffffffff1681525050806008908162000124919062000560565b505062000647565b600090565b6000604051905090565b600080fd5b600080fd5b600080fd5b600080fd5b6000601f19601f8301169050919050565b7f4e487b7100000000000000000000000000000000000000000000000000000000600052604160045260246000fd5b6200019a826200014f565b810181811067ffffffffffffffff82111715620001bc57620001bb62000160565b5b80604052505050565b6000620001d162000131565b9050620001df82826200018f565b919050565b600067ffffffffffffffff82111562000202576200020162000160565b5b6200020d826200014f565b9050602081019050919050565b60005b838110156200023a5780820151818401526020810190506200021d565b60008484015250505050565b60006200025d6200025784620001e4565b620001c5565b9050828152602081018484840111156200027c576200027b6200014a565b5b620002898482856200021a565b509392505050565b600082601f830112620002a957620002a862000145565b5b8151620002bb84826020860162000246565b91505092915050565b600060208284031215620002dd57620002dc6200013b565b5b600082015167ffffffffffffffff811115620002fe57620002fd62000140565b5b6200030c8482850162000291565b91505092915050565b600081519050919050565b7f4e487b7100000000000000000000000000000000000000000000000000000000600052602260045260246000fd5b600060028204905060018216806200036857607f821691505b6020821081036200037e576200037d62000320565b5b50919050565b60008190508160005260206000209050919050565b60006020601f8301049050919050565b600082821b905092915050565b600060088302620003e87fffffffffffffffffffffffffffffffffffffffffffffffffffffffffffffffff82620003a9565b620003f48683620003a9565b95508019841693508086168417925050509392505050565b6000819050919050565b6000819050919050565b6000620004416200043b62000435846200040c565b62000416565b6200040c565b9050919050565b6000819050919050565b6200045d8362000420565b620004756200046c8262000448565b848454620003b6565b825550505050565b600090565b6200048c6200047d565b6200049981848462000452565b505050565b5b81811015620004c157620004b560008262000482565b6001810190506200049f565b5050565b601f8211156200051057620004da8162000384565b620004e58462000399565b81016020851015620004f5578190505b6200050d620005048562000399565b8301826200049e565b50505b505050565b600082821c905092915050565b6000620005356000198460080262000515565b1980831691505092915050565b600062000550838362000522565b9150826002028217905092915050565b6200056b8262000315565b67ffffffffffffffff81111562000587576200058662000160565b5b6200059382546200034f565b620005a0828285620004c5565b600060209050601f831160018114620005d85760008415620005c3578287015190505b620005cf858262000542565b8655506200063f565b601f198416620005e88662000384565b60005b828110156200061257848901518255600182019150602085019450602081019050620005eb565b868310156200063257848901516200062e601f89168262000522565b8355505b6001600288020188555050505b505050505050565b6080516126c76200066a60003960008181610c780152610e6e01526126c76000f3fe60806040526004361061011f5760003560e01c806370a08231116100a0578063a22cb46511610064578063a22cb465146103b3578063b88d4fde146103dc578063c87b56dd146103f8578063df3a458614610435578063e985e9c5146104725761011f565b806370a08231146102ca578063714c539814610307578063893d20e81461033257806395d89b411461035d57806398d5fdca146103885761011f565b806323b872dd116100e757806323b872dd146102105780632db115441461022c57806342842e0e1461024857806355f804b3146102645780636352211e1461028d5761011f565b806301ffc9a71461012457806306fdde0314610161578063081812fc1461018c578063095ea7b3146101c957806318160ddd146101e5575b600080fd5b34801561013057600080fd5b5061014b6004803603810190610146919061197d565b6104af565b60405161015891906119c5565b60405180910390f35b34801561016d57600080fd5b50610176610541565b6040516101839190611a70565b60405180910390f35b34801561019857600080fd5b506101b360048036038101906101ae9190611ac8565b6105d3565b6040516101c09190611b36565b60405180910390f35b6101e360048036038101906101de9190611b7d565b610652565b005b3480156101f157600080fd5b506101fa610796565b6040516102079190611bcc565b60405180910390f35b61022a60048036038101906102259190611be7565b6107ad565b005b61024660048036038101906102419190611ac8565b610acf565b005b610262600480360381019061025d9190611be7565b610c56565b005b34801561027057600080fd5b5061028b60048036038101906102869190611d6f565b610c76565b005b34801561029957600080fd5b506102b460048036038101906102af9190611ac8565b610d0e565b6040516102c19190611b36565b60405180910390f35b3480156102d657600080fd5b506102f160048036038101906102ec9190611db8565b610d20565b6040516102fe9190611bcc565b60405180910390f35b34801561031357600080fd5b5061031c610dd8565b6040516103299190611a70565b60405180910390f35b34801561033e57600080fd5b50610347610e6a565b6040516103549190611b36565b60405180910390f35b34801561036957600080fd5b50610372610e92565b60405161037f9190611a70565b60405180910390f35b34801561039457600080fd5b5061039d610f24565b6040516103aa9190611bcc565b60405180910390f35b3480156103bf57600080fd5b506103da60048036038101906103d59190611e11565b610f33565b005b6103f660048036038101906103f19190611ef2565b61103e565b005b34801561040457600080fd5b5061041f600480360381019061041a9190611ac8565b6110b1565b60405161042c9190611a70565b60405180910390f35b34801561044157600080fd5b5061045c60048036038101906104579190611db8565b611124565b6040516104699190611bcc565b60405180910390f35b34801561047e57600080fd5b5061049960048036038101906104949190611f75565b61113c565b6040516104a691906119c5565b60405180910390f35b60006301ffc9a760e01b827bffffffffffffffffffffffffffffffffffffffffffffffffffffffff1916148061050a57506380ac58cd60e01b827bffffffffffffffffffffffffffffffffffffffffffffffffffffffff1916145b8061053a5750635b5e139f60e01b827bffffffffffffffffffffffffffffffffffffffffffffffffffffffff1916145b9050919050565b60606002805461055090611fe4565b80601f016020809104026020016040519081016040528092919081815260200182805461057c90611fe4565b80156105c95780601f1061059e576101008083540402835291602001916105c9565b820191906000526020600020905b8154815290600101906020018083116105ac57829003601f168201915b5050505050905090565b60006105de826111d0565b610614576040517fcf4700e400000000000000000000000000000000000000000000000000000000815260040160405180910390fd5b6006600083815260200190815260200160002060000160009054906101000a900473ffffffffffffffffffffffffffffffffffffffff169050919050565b600061065d82610d0e565b90508073ffffffffffffffffffffffffffffffffffffffff1661067e61122f565b73ffffffffffffffffffffffffffffffffffffffff16146106e1576106aa816106a561122f565b61113c565b6106e0576040517fcfb3b94200000000000000000000000000000000000000000000000000000000815260040160405180910390fd5b5b826006600084815260200190815260200160002060000160006101000a81548173ffffffffffffffffffffffffffffffffffffffff021916908373ffffffffffffffffffffffffffffffffffffffff160217905550818373ffffffffffffffffffffffffffffffffffffffff168273ffffffffffffffffffffffffffffffffffffffff167f8c5be1e5ebec7d5bd14f71427d1e84f3dd0314c0f7b2291e5b200ac8c7c3b92560405160405180910390a4505050565b60006107a0611237565b6001546000540303905090565b60006107b88261123c565b90508373ffffffffffffffffffffffffffffffffffffffff168173ffffffffffffffffffffffffffffffffffffffff161461081f576040517fa114810000000000000000000000000000000000000000000000000000000000815260040160405180910390fd5b60008061082b84611308565b91509150610841818761083c61122f565b61132f565b61088d576108568661085161122f565b61113c565b61088c576040517f59c896be00000000000000000000000000000000000000000000000000000000815260040160405180910390fd5b5b600073ffffffffffffffffffffffffffffffffffffffff168573ffffffffffffffffffffffffffffffffffffffff16036108f3576040517fea553b3400000000000000000000000000000000000000000000000000000000815260040160405180910390fd5b6109008686866001611373565b801561090b57600082555b600560008773ffffffffffffffffffffffffffffffffffffffff1673ffffffffffffffffffffffffffffffffffffffff168152602001908152602001600020600081546001900391905081905550600560008673ffffffffffffffffffffffffffffffffffffffff1673ffffffffffffffffffffffffffffffffffffffff16815260200190815260200160002060008154600101919050819055506109d9856109b5888887611379565b7c0200000000000000000000000000000000000000000000000000000000176113a1565b600460008681526020019081526020016000208190555060007c0200000000000000000000000000000000000000000000000000000000841603610a5f5760006001850190506000600460008381526020019081526020016000205403610a5d576000548114610a5c578360046000838152602001908152602001600020819055505b5b505b838573ffffffffffffffffffffffffffffffffffffffff168773ffffffffffffffffffffffffffffffffffffffff167fddf252ad1be2c89b69c2b068fc378daa952ba7f163c4a11628f55a4df523b3ef60405160405180910390a4610ac786868660016113cc565b505050505050565b6000610ad9610f24565b9050600582610ae6610796565b610af09190612044565b1115610b28576040517f2b273f4300000000000000000000000000000000000000000000000000000000815260040160405180910390fd5b600382600960003373ffffffffffffffffffffffffffffffffffffffff1673ffffffffffffffffffffffffffffffffffffffff16815260200190815260200160002054610b759190612044565b1115610bad576040517fb5b0acfa00000000000000000000000000000000000000000000000000000000815260040160405180910390fd5b8181610bb99190612078565b341015610bf2576040517f69cd1d6d00000000000000000000000000000000000000000000000000000000815260040160405180910390fd5b81600960003373ffffffffffffffffffffffffffffffffffffffff1673ffffffffffffffffffffffffffffffffffffffff1681526020019081526020016000206000828254610c419190612044565b92505081905550610c5233836113d2565b5050565b610c718383836040518060200160405280600081525061103e565b505050565b7f000000000000000000000000000000000000000000000000000000000000000073ffffffffffffffffffffffffffffffffffffffff163373ffffffffffffffffffffffffffffffffffffffff1614610cfb576040517f30d5c90900000000000000000000000000000000000000000000000000000000815260040160405180910390fd5b8060089081610d0a9190612266565b5050565b6000610d198261123c565b9050919050565b60008073ffffffffffffffffffffffffffffffffffffffff168273ffffffffffffffffffffffffffffffffffffffff1603610d87576040517f8f4eb60400000000000000000000000000000000000000000000000000000000815260040160405180910390fd5b67ffffffffffffffff600560008473ffffffffffffffffffffffffffffffffffffffff1673ffffffffffffffffffffffffffffffffffffffff16815260200190815260200160002054169050919050565b606060088054610de790611fe4565b80601f0160208091040260200160405190810160405280929190818152602001828054610e1390611fe4565b8015610e605780601f10610e3557610100808354040283529160200191610e60565b820191906000526020600020905b815481529060010190602001808311610e4357829003601f168201915b5050505050905090565b60007f0000000000000000000000000000000000000000000000000000000000000000905090565b606060038054610ea190611fe4565b80601f0160208091040260200160405190810160405280929190818152602001828054610ecd90611fe4565b8015610f1a5780601f10610eef57610100808354040283529160200191610f1a565b820191906000526020600020905b815481529060010190602001808311610efd57829003601f168201915b5050505050905090565b6000662386f26fc10000905090565b8060076000610f4061122f565b73ffffffffffffffffffffffffffffffffffffffff1673ffffffffffffffffffffffffffffffffffffffff16815260200190815260200160002060008473ffffffffffffffffffffffffffffffffffffffff1673ffffffffffffffffffffffffffffffffffffffff16815260200190815260200160002060006101000a81548160ff0219169083151502179055508173ffffffffffffffffffffffffffffffffffffffff16610fed61122f565b73ffffffffffffffffffffffffffffffffffffffff167f17307eab39ab6107e8899845ad3d59bd9653f200f220920489ca2b5937696c318360405161103291906119c5565b60405180910390a35050565b6110498484846107ad565b60008373ffffffffffffffffffffffffffffffffffffffff163b146110ab57611074848484846113f0565b6110aa576040517fd1a57ed600000000000000000000000000000000000000000000000000000000815260040160405180910390fd5b5b50505050565b60606110bc826111d0565b6110f2576040517f340a193600000000000000000000000000000000000000000000000000000000815260040160405180910390fd5b60086110fd83611540565b60405160200161110e929190612443565b6040516020818303038152906040529050919050565b60096020528060005260406000206000915090505481565b6000600760008473ffffffffffffffffffffffffffffffffffffffff1673ffffffffffffffffffffffffffffffffffffffff16815260200190815260200160002060008373ffffffffffffffffffffffffffffffffffffffff1673ffffffffffffffffffffffffffffffffffffffff16815260200190815260200160002060009054906101000a900460ff16905092915050565b6000816111db611237565b111580156111ea575060005482105b8015611228575060007c0100000000000000000000000000000000000000000000000000000000600460008581526020019081526020016000205416145b9050919050565b600033905090565b600090565b6000808290508061124b611237565b116112d1576000548110156112d05760006004600083815260200190815260200160002054905060007c01000000000000000000000000000000000000000000000000000000008216036112ce575b600081036112c457600460008360019003935083815260200190815260200160002054905061129a565b8092505050611303565b505b5b6040517fdf2d9b4200000000000000000000000000000000000000000000000000000000815260040160405180910390fd5b919050565b60008060006006600085815260200190815260200160002090508092508254915050915091565b600073ffffffffffffffffffffffffffffffffffffffff8316925073ffffffffffffffffffffffffffffffffffffffff821691508382148383141790509392505050565b50505050565b60008060e883901c905060e86113908686846116a0565b62ffffff16901b9150509392505050565b600073ffffffffffffffffffffffffffffffffffffffff83169250814260a01b178317905092915050565b50505050565b6113ec8282604051806020016040528060008152506116a9565b5050565b60008373ffffffffffffffffffffffffffffffffffffffff1663150b7a0261141661122f565b8786866040518563ffffffff1660e01b815260040161143894939291906124c7565b6020604051808303816000875af192505050801561147457506040513d601f19601f820116820180604052508101906114719190612528565b60015b6114ed573d80600081146114a4576040519150601f19603f3d011682016040523d82523d6000602084013e6114a9565b606091505b5060008151036114e5576040517fd1a57ed600000000000000000000000000000000000000000000000000000000815260040160405180910390fd5b805181602001fd5b63150b7a0260e01b7bffffffffffffffffffffffffffffffffffffffffffffffffffffffff1916817bffffffffffffffffffffffffffffffffffffffffffffffffffffffff191614915050949350505050565b606060008203611587576040518060400160405280600181526020017f3000000000000000000000000000000000000000000000000000000000000000815250905061169b565b600082905060005b600082146115b95780806115a290612555565b915050600a826115b291906125cc565b915061158f565b60008167ffffffffffffffff8111156115d5576115d4611c44565b5b6040519080825280601f01601f1916602001820160405280156116075781602001600182028036833780820191505090505b5090505b600085146116945760018261162091906125fd565b9150600a8561162f9190612631565b603061163b9190612044565b60f81b81838151811061165157611650612662565b5b60200101907effffffffffffffffffffffffffffffffffffffffffffffffffffffffffffff1916908160001a905350600a8561168d91906125cc565b945061160b565b8093505050505b919050565b60009392505050565b6116b38383611746565b60008373ffffffffffffffffffffffffffffffffffffffff163b1461174157600080549050600083820390505b6116f360008683806001019450866113f0565b611729576040517fd1a57ed600000000000000000000000000000000000000000000000000000000815260040160405180910390fd5b8181106116e057816000541461173e57600080fd5b50505b505050565b60008054905060008203611786576040517fb562e8dd00000000000000000000000000000000000000000000000000000000815260040160405180910390fd5b6117936000848385611373565b600160406001901b178202600560008573ffffffffffffffffffffffffffffffffffffffff1673ffffffffffffffffffffffffffffffffffffffff1681526020019081526020016000206000828254019250508190555061180a836117fb6000866000611379565b61180485611901565b176113a1565b6004600083815260200190815260200160002081905550600080838301905073ffffffffffffffffffffffffffffffffffffffff85169150828260007fddf252ad1be2c89b69c2b068fc378daa952ba7f163c4a11628f55a4df523b3ef600080a4600183015b8181146118ab57808360007fddf252ad1be2c89b69c2b068fc378daa952ba7f163c4a11628f55a4df523b3ef600080a4600181019050611870565b50600082036118e6576040517f2e07630000000000000000000000000000000000000000000000000000000000815260040160405180910390fd5b8060008190555050506118fc60008483856113cc565b505050565b60006001821460e11b9050919050565b6000604051905090565b600080fd5b600080fd5b60007fffffffff0000000000000000000000000000000000000000000000000000000082169050919050565b61195a81611925565b811461196557600080fd5b50565b60008135905061197781611951565b92915050565b6000602082840312156119935761199261191b565b5b60006119a184828501611968565b91505092915050565b60008115159050919050565b6119bf816119aa565b82525050565b60006020820190506119da60008301846119b6565b92915050565b600081519050919050565b600082825260208201905092915050565b60005b83811015611a1a5780820151818401526020810190506119ff565b60008484015250505050565b6000601f19601f8301169050919050565b6000611a42826119e0565b611a4c81856119eb565b9350611a5c8185602086016119fc565b611a6581611a26565b840191505092915050565b60006020820190508181036000830152611a8a8184611a37565b905092915050565b6000819050919050565b611aa581611a92565b8114611ab057600080fd5b50565b600081359050611ac281611a9c565b92915050565b600060208284031215611ade57611add61191b565b5b6000611aec84828501611ab3565b91505092915050565b600073ffffffffffffffffffffffffffffffffffffffff82169050919050565b6000611b2082611af5565b9050919050565b611b3081611b15565b82525050565b6000602082019050611b4b6000830184611b27565b92915050565b611b5a81611b15565b8114611b6557600080fd5b50565b600081359050611b7781611b51565b92915050565b60008060408385031215611b9457611b9361191b565b5b6000611ba285828601611b68565b9250506020611bb385828601611ab3565b9150509250929050565b611bc681611a92565b82525050565b6000602082019050611be16000830184611bbd565b92915050565b600080600060608486031215611c0057611bff61191b565b5b6000611c0e86828701611b68565b9350506020611c1f86828701611b68565b9250506040611c3086828701611ab3565b9150509250925092565b600080fd5b600080fd5b7f4e487b7100000000000000000000000000000000000000000000000000000000600052604160045260246000fd5b611c7c82611a26565b810181811067ffffffffffffffff82111715611c9b57611c9a611c44565b5b80604052505050565b6000611cae611911565b9050611cba8282611c73565b919050565b600067ffffffffffffffff821115611cda57611cd9611c44565b5b611ce382611a26565b9050602081019050919050565b82818337600083830152505050565b6000611d12611d0d84611cbf565b611ca4565b905082815260208101848484011115611d2e57611d2d611c3f565b5b611d39848285611cf0565b509392505050565b600082601f830112611d5657611d55611c3a565b5b8135611d66848260208601611cff565b91505092915050565b600060208284031215611d8557611d8461191b565b5b600082013567ffffffffffffffff811115611da357611da2611920565b5b611daf84828501611d41565b91505092915050565b600060208284031215611dce57611dcd61191b565b5b6000611ddc84828501611b68565b91505092915050565b611dee816119aa565b8114611df957600080fd5b50565b600081359050611e0b81611de5565b92915050565b60008060408385031215611e2857611e2761191b565b5b6000611e3685828601611b68565b9250506020611e4785828601611dfc565b9150509250929050565b600067ffffffffffffffff821115611e6c57611e6b611c44565b5b611e7582611a26565b9050602081019050919050565b6000611e95611e9084611e51565b611ca4565b905082815260208101848484011115611eb157611eb0611c3f565b5b611ebc848285611cf0565b509392505050565b600082601f830112611ed957611ed8611c3a565b5b8135611ee9848260208601611e82565b91505092915050565b60008060008060808587031215611f0c57611f0b61191b565b5b6000611f1a87828801611b68565b9450506020611f2b87828801611b68565b9350506040611f3c87828801611ab3565b925050606085013567ffffffffffffffff811115611f5d57611f5c611920565b5b611f6987828801611ec4565b91505092959194509250565b60008060408385031215611f8c57611f8b61191b565b5b6000611f9a85828601611b68565b9250506020611fab85828601611b68565b9150509250929050565b7f4e487b7100000000000000000000000000000000000000000000000000000000600052602260045260246000fd5b60006002820490506001821680611ffc57607f821691505b60208210810361200f5761200e611fb5565b5b50919050565b7f4e487b7100000000000000000000000000000000000000000000000000000000600052601160045260246000fd5b600061204f82611a92565b915061205a83611a92565b925082820190508082111561207257612071612015565b5b92915050565b600061208382611a92565b915061208e83611a92565b925082820261209c81611a92565b915082820484148315176120b3576120b2612015565b5b5092915050565b60008190508160005260206000209050919050565b60006020601f8301049050919050565b600082821b905092915050565b60006008830261211c7fffffffffffffffffffffffffffffffffffffffffffffffffffffffffffffffff826120df565b61212686836120df565b95508019841693508086168417925050509392505050565b6000819050919050565b600061216361215e61215984611a92565b61213e565b611a92565b9050919050565b6000819050919050565b61217d83612148565b6121916121898261216a565b8484546120ec565b825550505050565b600090565b6121a6612199565b6121b1818484612174565b505050565b5b818110156121d5576121ca60008261219e565b6001810190506121b7565b5050565b601f82111561221a576121eb816120ba565b6121f4846120cf565b81016020851015612203578190505b61221761220f856120cf565b8301826121b6565b50505b505050565b600082821c905092915050565b600061223d6000198460080261221f565b1980831691505092915050565b6000612256838361222c565b9150826002028217905092915050565b61226f826119e0565b67ffffffffffffffff81111561228857612287611c44565b5b6122928254611fe4565b61229d8282856121d9565b600060209050601f8311600181146122d057600084156122be578287015190505b6122c8858261224a565b865550612330565b601f1984166122de866120ba565b60005b82811015612306578489015182556001820191506020850194506020810190506122e1565b86831015612323578489015161231f601f89168261222c565b8355505b6001600288020188555050505b505050505050565b600081905092915050565b6000815461235081611fe4565b61235a8186612338565b94506001821660008114612375576001811461238a576123bd565b60ff19831686528115158202860193506123bd565b612393856120ba565b60005b838110156123b557815481890152600182019150602081019050612396565b838801955050505b50505092915050565b60006123d1826119e0565b6123db8185612338565b93506123eb8185602086016119fc565b80840191505092915050565b7f2e6a736f6e000000000000000000000000000000000000000000000000000000600082015250565b600061242d600583612338565b9150612438826123f7565b600582019050919050565b600061244f8285612343565b915061245b82846123c6565b915061246682612420565b91508190509392505050565b600081519050919050565b600082825260208201905092915050565b600061249982612472565b6124a3818561247d565b93506124b38185602086016119fc565b6124bc81611a26565b840191505092915050565b60006080820190506124dc6000830187611b27565b6124e96020830186611b27565b6124f66040830185611bbd565b8181036060830152612508818461248e565b905095945050505050565b60008151905061252281611951565b92915050565b60006020828403121561253e5761253d61191b565b5b600061254c84828501612513565b91505092915050565b600061256082611a92565b91507fffffffffffffffffffffffffffffffffffffffffffffffffffffffffffffffff820361259257612591612015565b5b600182019050919050565b7f4e487b7100000000000000000000000000000000000000000000000000000000600052601260045260246000fd5b60006125d782611a92565b91506125e283611a92565b9250826125f2576125f161259d565b5b828204905092915050565b600061260882611a92565b915061261383611a92565b925082820390508181111561262b5761262a612015565b5b92915050565b600061263c82611a92565b915061264783611a92565b9250826126575761265661259d565b5b828206905092915050565b7f4e487b7100000000000000000000000000000000000000000000000000000000600052603260045260246000fdfea2646970667358221220ed973eee344d00675d576b1b03ba8004d24db96e55389b021cfd3ee1e6e8f79964736f6c63430008110033",
  "devdoc": {
    "kind": "dev",
    "methods": {
      "approve(address,uint256)": {
        "details": "Gives permission to `to` to transfer `tokenId` token to another account. The approval is cleared when the token is transferred. Only a single account can be approved at a time, so approving the zero address clears previous approvals. Requirements: - The caller must own the token or be an approved operator. - `tokenId` must exist. Emits an {Approval} event."
      },
      "balanceOf(address)": {
        "details": "Returns the number of tokens in `owner`'s account."
      },
      "getApproved(uint256)": {
        "details": "Returns the account approved for `tokenId` token. Requirements: - `tokenId` must exist."
      },
      "isApprovedForAll(address,address)": {
        "details": "Returns if the `operator` is allowed to manage all of the assets of `owner`. See {setApprovalForAll}."
      },
      "name()": {
        "details": "Returns the token collection name."
      },
      "ownerOf(uint256)": {
        "details": "Returns the owner of the `tokenId` token. Requirements: - `tokenId` must exist."
      },
      "safeTransferFrom(address,address,uint256)": {
        "details": "Equivalent to `safeTransferFrom(from, to, tokenId, '')`."
      },
      "safeTransferFrom(address,address,uint256,bytes)": {
        "details": "Safely transfers `tokenId` token from `from` to `to`. Requirements: - `from` cannot be the zero address. - `to` cannot be the zero address. - `tokenId` token must exist and be owned by `from`. - If the caller is not `from`, it must be approved to move this token by either {approve} or {setApprovalForAll}. - If `to` refers to a smart contract, it must implement {IERC721Receiver-onERC721Received}, which is called upon a safe transfer. Emits a {Transfer} event."
      },
      "setApprovalForAll(address,bool)": {
        "details": "Approve or remove `operator` as an operator for the caller. Operators can call {transferFrom} or {safeTransferFrom} for any token owned by the caller. Requirements: - The `operator` cannot be the caller. Emits an {ApprovalForAll} event."
      },
      "supportsInterface(bytes4)": {
        "details": "Returns true if this contract implements the interface defined by `interfaceId`. See the corresponding [EIP section](https://eips.ethereum.org/EIPS/eip-165#how-interfaces-are-identified) to learn more about how these ids are created. This function call must use less than 30000 gas."
      },
      "symbol()": {
        "details": "Returns the token collection symbol."
      },
      "totalSupply()": {
        "details": "Returns the total number of tokens in existence. Burned tokens will reduce the count. To get the total number of tokens minted, please see {_totalMinted}."
      },
      "transferFrom(address,address,uint256)": {
        "details": "Transfers `tokenId` from `from` to `to`. Requirements: - `from` cannot be the zero address. - `to` cannot be the zero address. - `tokenId` token must be owned by `from`. - If the caller is not `from`, it must be approved to move this token by either {approve} or {setApprovalForAll}. Emits a {Transfer} event."
      }
    },
    "version": 1
  },
  "userdoc": {
    "errors": {
      "ApprovalCallerNotOwnerNorApproved()": [
        {
          "notice": "The caller must own the token or be an approved operator."
        }
      ],
      "ApprovalQueryForNonexistentToken()": [
        {
          "notice": "The token does not exist."
        }
      ],
      "BalanceQueryForZeroAddress()": [
        {
          "notice": "Cannot query the balance for the zero address."
        }
      ],
      "MintERC2309QuantityExceedsLimit()": [
        {
          "notice": "The `quantity` minted with ERC2309 exceeds the safety limit."
        }
      ],
      "MintToZeroAddress()": [
        {
          "notice": "Cannot mint to the zero address."
        }
      ],
      "MintZeroQuantity()": [
        {
          "notice": "The quantity of tokens minted must be more than zero."
        }
      ],
      "OwnerQueryForNonexistentToken()": [
        {
          "notice": "The token does not exist."
        }
      ],
      "OwnershipNotInitializedForExtraData()": [
        {
          "notice": "The `extraData` cannot be set on an unintialized ownership slot."
        }
      ],
      "TransferCallerNotOwnerNorApproved()": [
        {
          "notice": "The caller must own the token or be an approved operator."
        }
      ],
      "TransferFromIncorrectOwner()": [
        {
          "notice": "The token must be owned by `from`."
        }
      ],
      "TransferToNonERC721ReceiverImplementer()": [
        {
          "notice": "Cannot safely transfer to a contract that does not implement the ERC721Receiver interface."
        }
      ],
      "TransferToZeroAddress()": [
        {
          "notice": "Cannot transfer to the zero address."
        }
      ],
      "URIQueryForNonexistentToken()": [
        {
          "notice": "The token does not exist."
        }
      ]
    },
    "kind": "user",
    "methods": {},
    "version": 1
  },
  "storageLayout": {
    "storage": [
      {
        "astId": 317,
        "contract": "contracts/NFTIsERC721A.sol:NFTIsERC721A",
        "label": "_currentIndex",
        "offset": 0,
        "slot": "0",
        "type": "t_uint256"
      },
      {
        "astId": 319,
        "contract": "contracts/NFTIsERC721A.sol:NFTIsERC721A",
        "label": "_burnCounter",
        "offset": 0,
        "slot": "1",
        "type": "t_uint256"
      },
      {
        "astId": 321,
        "contract": "contracts/NFTIsERC721A.sol:NFTIsERC721A",
        "label": "_name",
        "offset": 0,
        "slot": "2",
        "type": "t_string_storage"
      },
      {
        "astId": 323,
        "contract": "contracts/NFTIsERC721A.sol:NFTIsERC721A",
        "label": "_symbol",
        "offset": 0,
        "slot": "3",
        "type": "t_string_storage"
      },
      {
        "astId": 327,
        "contract": "contracts/NFTIsERC721A.sol:NFTIsERC721A",
        "label": "_packedOwnerships",
        "offset": 0,
        "slot": "4",
        "type": "t_mapping(t_uint256,t_uint256)"
      },
      {
        "astId": 331,
        "contract": "contracts/NFTIsERC721A.sol:NFTIsERC721A",
        "label": "_packedAddressData",
        "offset": 0,
        "slot": "5",
        "type": "t_mapping(t_address,t_uint256)"
      },
      {
        "astId": 336,
        "contract": "contracts/NFTIsERC721A.sol:NFTIsERC721A",
        "label": "_tokenApprovals",
        "offset": 0,
        "slot": "6",
        "type": "t_mapping(t_uint256,t_struct(TokenApprovalRef)249_storage)"
      },
      {
        "astId": 342,
        "contract": "contracts/NFTIsERC721A.sol:NFTIsERC721A",
        "label": "_operatorApprovals",
        "offset": 0,
        "slot": "7",
        "type": "t_mapping(t_address,t_mapping(t_address,t_bool))"
      },
      {
        "astId": 2085,
        "contract": "contracts/NFTIsERC721A.sol:NFTIsERC721A",
        "label": "baseURI",
        "offset": 0,
        "slot": "8",
        "type": "t_string_storage"
      },
      {
        "astId": 2089,
        "contract": "contracts/NFTIsERC721A.sol:NFTIsERC721A",
        "label": "amountNFTsPerWallet",
        "offset": 0,
        "slot": "9",
        "type": "t_mapping(t_address,t_uint256)"
      }
    ],
    "types": {
      "t_address": {
        "encoding": "inplace",
        "label": "address",
        "numberOfBytes": "20"
      },
      "t_bool": {
        "encoding": "inplace",
        "label": "bool",
        "numberOfBytes": "1"
      },
      "t_mapping(t_address,t_bool)": {
        "encoding": "mapping",
        "key": "t_address",
        "label": "mapping(address => bool)",
        "numberOfBytes": "32",
        "value": "t_bool"
      },
      "t_mapping(t_address,t_mapping(t_address,t_bool))": {
        "encoding": "mapping",
        "key": "t_address",
        "label": "mapping(address => mapping(address => bool))",
        "numberOfBytes": "32",
        "value": "t_mapping(t_address,t_bool)"
      },
      "t_mapping(t_address,t_uint256)": {
        "encoding": "mapping",
        "key": "t_address",
        "label": "mapping(address => uint256)",
        "numberOfBytes": "32",
        "value": "t_uint256"
      },
      "t_mapping(t_uint256,t_struct(TokenApprovalRef)249_storage)": {
        "encoding": "mapping",
        "key": "t_uint256",
        "label": "mapping(uint256 => struct ERC721A.TokenApprovalRef)",
        "numberOfBytes": "32",
        "value": "t_struct(TokenApprovalRef)249_storage"
      },
      "t_mapping(t_uint256,t_uint256)": {
        "encoding": "mapping",
        "key": "t_uint256",
        "label": "mapping(uint256 => uint256)",
        "numberOfBytes": "32",
        "value": "t_uint256"
      },
      "t_string_storage": {
        "encoding": "bytes",
        "label": "string",
        "numberOfBytes": "32"
      },
      "t_struct(TokenApprovalRef)249_storage": {
        "encoding": "inplace",
        "label": "struct ERC721A.TokenApprovalRef",
        "members": [
          {
            "astId": 248,
            "contract": "contracts/NFTIsERC721A.sol:NFTIsERC721A",
            "label": "value",
            "offset": 0,
            "slot": "0",
            "type": "t_address"
          }
        ],
        "numberOfBytes": "32"
      },
      "t_uint256": {
        "encoding": "inplace",
        "label": "uint256",
        "numberOfBytes": "32"
      }
    }
  }
}