{
  "address": "0x2279b7a0a67db372996a5fab50d91eaa73d2ebe6",
  "abi": [
    {
      "inputs": [],
      "stateMutability": "nonpayable",
      "type": "constructor"
    },
    {
      "inputs": [],
      "name": "ApprovalCallerNotOwnerNorApproved",
      "type": "error"
    },
    {
      "inputs": [],
      "name": "ApprovalQueryForNonexistentToken",
      "type": "error"
    },
    {
      "inputs": [],
      "name": "BalanceQueryForZeroAddress",
      "type": "error"
    },
    {
      "inputs": [],
      "name": "MintERC2309QuantityExceedsLimit",
      "type": "error"
    },
    {
      "inputs": [],
      "name": "MintToZeroAddress",
      "type": "error"
    },
    {
      "inputs": [],
      "name": "MintZeroQuantity",
      "type": "error"
    },
    {
      "inputs": [],
      "name": "NFTIsERC721A_NftsWalletExceeded",
      "type": "error"
    },
    {
      "inputs": [],
      "name": "NFTIsERC721A_NotEnoughFunds",
      "type": "error"
    },
    {
      "inputs": [],
      "name": "NFTIsERC721A_NotOwner",
      "type": "error"
    },
    {
      "inputs": [],
      "name": "NFTIsERC721A_SupplyExceeded",
      "type": "error"
    },
    {
      "inputs": [],
      "name": "OwnerQueryForNonexistentToken",
      "type": "error"
    },
    {
      "inputs": [],
      "name": "OwnershipNotInitializedForExtraData",
      "type": "error"
    },
    {
      "inputs": [],
      "name": "TransferCallerNotOwnerNorApproved",
      "type": "error"
    },
    {
      "inputs": [],
      "name": "TransferFromIncorrectOwner",
      "type": "error"
    },
    {
      "inputs": [],
      "name": "TransferToNonERC721ReceiverImplementer",
      "type": "error"
    },
    {
      "inputs": [],
      "name": "TransferToZeroAddress",
      "type": "error"
    },
    {
      "inputs": [],
      "name": "URIQueryForNonexistentToken",
      "type": "error"
    },
    {
      "anonymous": false,
      "inputs": [
        {
          "indexed": true,
          "internalType": "address",
          "name": "owner",
          "type": "address"
        },
        {
          "indexed": true,
          "internalType": "address",
          "name": "approved",
          "type": "address"
        },
        {
          "indexed": true,
          "internalType": "uint256",
          "name": "tokenId",
          "type": "uint256"
        }
      ],
      "name": "Approval",
      "type": "event"
    },
    {
      "anonymous": false,
      "inputs": [
        {
          "indexed": true,
          "internalType": "address",
          "name": "owner",
          "type": "address"
        },
        {
          "indexed": true,
          "internalType": "address",
          "name": "operator",
          "type": "address"
        },
        {
          "indexed": false,
          "internalType": "bool",
          "name": "approved",
          "type": "bool"
        }
      ],
      "name": "ApprovalForAll",
      "type": "event"
    },
    {
      "anonymous": false,
      "inputs": [
        {
          "indexed": true,
          "internalType": "uint256",
          "name": "fromTokenId",
          "type": "uint256"
        },
        {
          "indexed": false,
          "internalType": "uint256",
          "name": "toTokenId",
          "type": "uint256"
        },
        {
          "indexed": true,
          "internalType": "address",
          "name": "from",
          "type": "address"
        },
        {
          "indexed": true,
          "internalType": "address",
          "name": "to",
          "type": "address"
        }
      ],
      "name": "ConsecutiveTransfer",
      "type": "event"
    },
    {
      "anonymous": false,
      "inputs": [
        {
          "indexed": true,
          "internalType": "address",
          "name": "from",
          "type": "address"
        },
        {
          "indexed": true,
          "internalType": "address",
          "name": "to",
          "type": "address"
        },
        {
          "indexed": true,
          "internalType": "uint256",
          "name": "tokenId",
          "type": "uint256"
        }
      ],
      "name": "Transfer",
      "type": "event"
    },
    {
      "inputs": [
        {
          "internalType": "address",
          "name": "to",
          "type": "address"
        },
        {
          "internalType": "uint256",
          "name": "tokenId",
          "type": "uint256"
        }
      ],
      "name": "approve",
      "outputs": [],
      "stateMutability": "payable",
      "type": "function"
    },
    {
      "inputs": [
        {
          "internalType": "address",
          "name": "owner",
          "type": "address"
        }
      ],
      "name": "balanceOf",
      "outputs": [
        {
          "internalType": "uint256",
          "name": "",
          "type": "uint256"
        }
      ],
      "stateMutability": "view",
      "type": "function"
    },
    {
      "inputs": [
        {
          "internalType": "uint256",
          "name": "tokenId",
          "type": "uint256"
        }
      ],
      "name": "getApproved",
      "outputs": [
        {
          "internalType": "address",
          "name": "",
          "type": "address"
        }
      ],
      "stateMutability": "view",
      "type": "function"
    },
    {
      "inputs": [],
      "name": "getBaseURI",
      "outputs": [
        {
          "internalType": "string",
          "name": "",
          "type": "string"
        }
      ],
      "stateMutability": "view",
      "type": "function"
    },
    {
      "inputs": [],
      "name": "getOwner",
      "outputs": [
        {
          "internalType": "address",
          "name": "",
          "type": "address"
        }
      ],
      "stateMutability": "view",
      "type": "function"
    },
    {
      "inputs": [],
      "name": "getPrice",
      "outputs": [
        {
          "internalType": "uint256",
          "name": "",
          "type": "uint256"
        }
      ],
      "stateMutability": "pure",
      "type": "function"
    },
    {
      "inputs": [],
      "name": "getSaleStartTime",
      "outputs": [
        {
          "internalType": "uint256",
          "name": "",
          "type": "uint256"
        }
      ],
      "stateMutability": "view",
      "type": "function"
    },
    {
      "inputs": [
        {
          "internalType": "address",
          "name": "owner",
          "type": "address"
        },
        {
          "internalType": "address",
          "name": "operator",
          "type": "address"
        }
      ],
      "name": "isApprovedForAll",
      "outputs": [
        {
          "internalType": "bool",
          "name": "",
          "type": "bool"
        }
      ],
      "stateMutability": "view",
      "type": "function"
    },
    {
      "inputs": [
        {
          "internalType": "uint256",
          "name": "quantity",
          "type": "uint256"
        }
      ],
      "name": "mint",
      "outputs": [],
      "stateMutability": "payable",
      "type": "function"
    },
    {
      "inputs": [],
      "name": "name",
      "outputs": [
        {
          "internalType": "string",
          "name": "",
          "type": "string"
        }
      ],
      "stateMutability": "view",
      "type": "function"
    },
    {
      "inputs": [
        {
          "internalType": "uint256",
          "name": "tokenId",
          "type": "uint256"
        }
      ],
      "name": "ownerOf",
      "outputs": [
        {
          "internalType": "address",
          "name": "",
          "type": "address"
        }
      ],
      "stateMutability": "view",
      "type": "function"
    },
    {
      "inputs": [
        {
          "internalType": "address",
          "name": "",
          "type": "address"
        }
      ],
      "name": "s_amountNFTsPerWallet",
      "outputs": [
        {
          "internalType": "uint256",
          "name": "",
          "type": "uint256"
        }
      ],
      "stateMutability": "view",
      "type": "function"
    },
    {
      "inputs": [
        {
          "internalType": "address",
          "name": "from",
          "type": "address"
        },
        {
          "internalType": "address",
          "name": "to",
          "type": "address"
        },
        {
          "internalType": "uint256",
          "name": "tokenId",
          "type": "uint256"
        }
      ],
      "name": "safeTransferFrom",
      "outputs": [],
      "stateMutability": "payable",
      "type": "function"
    },
    {
      "inputs": [
        {
          "internalType": "address",
          "name": "from",
          "type": "address"
        },
        {
          "internalType": "address",
          "name": "to",
          "type": "address"
        },
        {
          "internalType": "uint256",
          "name": "tokenId",
          "type": "uint256"
        },
        {
          "internalType": "bytes",
          "name": "_data",
          "type": "bytes"
        }
      ],
      "name": "safeTransferFrom",
      "outputs": [],
      "stateMutability": "payable",
      "type": "function"
    },
    {
      "inputs": [
        {
          "internalType": "address",
          "name": "operator",
          "type": "address"
        },
        {
          "internalType": "bool",
          "name": "approved",
          "type": "bool"
        }
      ],
      "name": "setApprovalForAll",
      "outputs": [],
      "stateMutability": "nonpayable",
      "type": "function"
    },
    {
      "inputs": [
        {
          "internalType": "string",
          "name": "baseURI",
          "type": "string"
        }
      ],
      "name": "setBaseURI",
      "outputs": [],
      "stateMutability": "nonpayable",
      "type": "function"
    },
    {
      "inputs": [
        {
          "internalType": "uint256",
          "name": "saleStartTime",
          "type": "uint256"
        }
      ],
      "name": "setSaleStartTime",
      "outputs": [],
      "stateMutability": "nonpayable",
      "type": "function"
    },
    {
      "inputs": [
        {
          "internalType": "bytes4",
          "name": "interfaceId",
          "type": "bytes4"
        }
      ],
      "name": "supportsInterface",
      "outputs": [
        {
          "internalType": "bool",
          "name": "",
          "type": "bool"
        }
      ],
      "stateMutability": "view",
      "type": "function"
    },
    {
      "inputs": [],
      "name": "symbol",
      "outputs": [
        {
          "internalType": "string",
          "name": "",
          "type": "string"
        }
      ],
      "stateMutability": "view",
      "type": "function"
    },
    {
      "inputs": [
        {
          "internalType": "uint256",
          "name": "_tokenId",
          "type": "uint256"
        }
      ],
      "name": "tokenURI",
      "outputs": [
        {
          "internalType": "string",
          "name": "",
          "type": "string"
        }
      ],
      "stateMutability": "view",
      "type": "function"
    },
    {
      "inputs": [],
      "name": "totalSupply",
      "outputs": [
        {
          "internalType": "uint256",
          "name": "",
          "type": "uint256"
        }
      ],
      "stateMutability": "view",
      "type": "function"
    },
    {
      "inputs": [
        {
          "internalType": "address",
          "name": "from",
          "type": "address"
        },
        {
          "internalType": "address",
          "name": "to",
          "type": "address"
        },
        {
          "internalType": "uint256",
          "name": "tokenId",
          "type": "uint256"
        }
      ],
      "name": "transferFrom",
      "outputs": [],
      "stateMutability": "payable",
      "type": "function"
    }
  ],
  "transactionHash": "0x774bc68468aa2f9afa5a5a1f036dc1c88a8a39af85c8f91acb7247bf52b2976e",
  "args": [],
  "numDeployments": 2,
  "solcInputHash": "72af5296fa71b13beeded758087f8692",
  "bytecode": "0x60a060405262409bfa6008553480156200001857600080fd5b506040518060400160405280600681526020017f42656e20424b00000000000000000000000000000000000000000000000000008152506040518060400160405280600381526020017f42424b000000000000000000000000000000000000000000000000000000000081525081600290816200009691906200037a565b508060039081620000a891906200037a565b50620000b9620000fb60201b60201c565b60008190555050503373ffffffffffffffffffffffffffffffffffffffff1660808173ffffffffffffffffffffffffffffffffffffffff168152505062000461565b600090565b600081519050919050565b7f4e487b7100000000000000000000000000000000000000000000000000000000600052604160045260246000fd5b7f4e487b7100000000000000000000000000000000000000000000000000000000600052602260045260246000fd5b600060028204905060018216806200018257607f821691505b6020821081036200019857620001976200013a565b5b50919050565b60008190508160005260206000209050919050565b60006020601f8301049050919050565b600082821b905092915050565b600060088302620002027fffffffffffffffffffffffffffffffffffffffffffffffffffffffffffffffff82620001c3565b6200020e8683620001c3565b95508019841693508086168417925050509392505050565b6000819050919050565b6000819050919050565b60006200025b620002556200024f8462000226565b62000230565b62000226565b9050919050565b6000819050919050565b62000277836200023a565b6200028f620002868262000262565b848454620001d0565b825550505050565b600090565b620002a662000297565b620002b38184846200026c565b505050565b5b81811015620002db57620002cf6000826200029c565b600181019050620002b9565b5050565b601f8211156200032a57620002f4816200019e565b620002ff84620001b3565b810160208510156200030f578190505b620003276200031e85620001b3565b830182620002b8565b50505b505050565b600082821c905092915050565b60006200034f600019846008026200032f565b1980831691505092915050565b60006200036a83836200033c565b9150826002028217905092915050565b620003858262000100565b67ffffffffffffffff811115620003a157620003a06200010b565b5b620003ad825462000169565b620003ba828285620002df565b600060209050601f831160018114620003f25760008415620003dd578287015190505b620003e985826200035c565b86555062000459565b601f19841662000402866200019e565b60005b828110156200042c5784890151825560018201915060208501945060208101905062000405565b868310156200044c578489015162000448601f8916826200033c565b8355505b6001600288020188555050505b505050505050565b6080516127396200048b60003960008181610b5b01528181610be30152610dc901526127396000f3fe6080604052600436106101355760003560e01c8063714c5398116100ab578063a22cb4651161006f578063a22cb465146103f2578063b88d4fde1461041b578063c2b1ddaf14610437578063c87b56dd14610462578063e160317a1461049f578063e985e9c5146104dc57610135565b8063714c53981461032a578063893d20e81461035557806395d89b411461038057806398d5fdca146103ab578063a0712d68146103d657610135565b806323b872dd116100fd57806323b872dd1461022657806342842e0e14610242578063525f8a5c1461025e57806355f804b3146102875780636352211e146102b057806370a08231146102ed57610135565b806301ffc9a71461013a57806306fdde0314610177578063081812fc146101a2578063095ea7b3146101df57806318160ddd146101fb575b600080fd5b34801561014657600080fd5b50610161600480360381019061015c9190611a72565b610519565b60405161016e9190611aba565b60405180910390f35b34801561018357600080fd5b5061018c6105ab565b6040516101999190611b65565b60405180910390f35b3480156101ae57600080fd5b506101c960048036038101906101c49190611bbd565b61063d565b6040516101d69190611c2b565b60405180910390f35b6101f960048036038101906101f49190611c72565b6106bc565b005b34801561020757600080fd5b50610210610800565b60405161021d9190611cc1565b60405180910390f35b610240600480360381019061023b9190611cdc565b610817565b005b61025c60048036038101906102579190611cdc565b610b39565b005b34801561026a57600080fd5b5061028560048036038101906102809190611bbd565b610b59565b005b34801561029357600080fd5b506102ae60048036038101906102a99190611e64565b610be1565b005b3480156102bc57600080fd5b506102d760048036038101906102d29190611bbd565b610c69565b6040516102e49190611c2b565b60405180910390f35b3480156102f957600080fd5b50610314600480360381019061030f9190611ead565b610c7b565b6040516103219190611cc1565b60405180910390f35b34801561033657600080fd5b5061033f610d33565b60405161034c9190611b65565b60405180910390f35b34801561036157600080fd5b5061036a610dc5565b6040516103779190611c2b565b60405180910390f35b34801561038c57600080fd5b50610395610ded565b6040516103a29190611b65565b60405180910390f35b3480156103b757600080fd5b506103c0610e7f565b6040516103cd9190611cc1565b60405180910390f35b6103f060048036038101906103eb9190611bbd565b610e8e565b005b3480156103fe57600080fd5b5061041960048036038101906104149190611f06565b611015565b005b61043560048036038101906104309190611fe7565b611120565b005b34801561044357600080fd5b5061044c611193565b6040516104599190611cc1565b60405180910390f35b34801561046e57600080fd5b5061048960048036038101906104849190611bbd565b61119d565b6040516104969190611b65565b60405180910390f35b3480156104ab57600080fd5b506104c660048036038101906104c19190611ead565b611219565b6040516104d39190611cc1565b60405180910390f35b3480156104e857600080fd5b5061050360048036038101906104fe919061206a565b611231565b6040516105109190611aba565b60405180910390f35b60006301ffc9a760e01b827bffffffffffffffffffffffffffffffffffffffffffffffffffffffff1916148061057457506380ac58cd60e01b827bffffffffffffffffffffffffffffffffffffffffffffffffffffffff1916145b806105a45750635b5e139f60e01b827bffffffffffffffffffffffffffffffffffffffffffffffffffffffff1916145b9050919050565b6060600280546105ba906120d9565b80601f01602080910402602001604051908101604052809291908181526020018280546105e6906120d9565b80156106335780601f1061060857610100808354040283529160200191610633565b820191906000526020600020905b81548152906001019060200180831161061657829003601f168201915b5050505050905090565b6000610648826112c5565b61067e576040517fcf4700e400000000000000000000000000000000000000000000000000000000815260040160405180910390fd5b6006600083815260200190815260200160002060000160009054906101000a900473ffffffffffffffffffffffffffffffffffffffff169050919050565b60006106c782610c69565b90508073ffffffffffffffffffffffffffffffffffffffff166106e8611324565b73ffffffffffffffffffffffffffffffffffffffff161461074b576107148161070f611324565b611231565b61074a576040517fcfb3b94200000000000000000000000000000000000000000000000000000000815260040160405180910390fd5b5b826006600084815260200190815260200160002060000160006101000a81548173ffffffffffffffffffffffffffffffffffffffff021916908373ffffffffffffffffffffffffffffffffffffffff160217905550818373ffffffffffffffffffffffffffffffffffffffff168273ffffffffffffffffffffffffffffffffffffffff167f8c5be1e5ebec7d5bd14f71427d1e84f3dd0314c0f7b2291e5b200ac8c7c3b92560405160405180910390a4505050565b600061080a61132c565b6001546000540303905090565b600061082282611331565b90508373ffffffffffffffffffffffffffffffffffffffff168173ffffffffffffffffffffffffffffffffffffffff1614610889576040517fa114810000000000000000000000000000000000000000000000000000000000815260040160405180910390fd5b600080610895846113fd565b915091506108ab81876108a6611324565b611424565b6108f7576108c0866108bb611324565b611231565b6108f6576040517f59c896be00000000000000000000000000000000000000000000000000000000815260040160405180910390fd5b5b600073ffffffffffffffffffffffffffffffffffffffff168573ffffffffffffffffffffffffffffffffffffffff160361095d576040517fea553b3400000000000000000000000000000000000000000000000000000000815260040160405180910390fd5b61096a8686866001611468565b801561097557600082555b600560008773ffffffffffffffffffffffffffffffffffffffff1673ffffffffffffffffffffffffffffffffffffffff168152602001908152602001600020600081546001900391905081905550600560008673ffffffffffffffffffffffffffffffffffffffff1673ffffffffffffffffffffffffffffffffffffffff1681526020019081526020016000206000815460010191905081905550610a4385610a1f88888761146e565b7c020000000000000000000000000000000000000000000000000000000017611496565b600460008681526020019081526020016000208190555060007c0200000000000000000000000000000000000000000000000000000000841603610ac95760006001850190506000600460008381526020019081526020016000205403610ac7576000548114610ac6578360046000838152602001908152602001600020819055505b5b505b838573ffffffffffffffffffffffffffffffffffffffff168773ffffffffffffffffffffffffffffffffffffffff167fddf252ad1be2c89b69c2b068fc378daa952ba7f163c4a11628f55a4df523b3ef60405160405180910390a4610b3186868660016114c1565b505050505050565b610b5483838360405180602001604052806000815250611120565b505050565b7f000000000000000000000000000000000000000000000000000000000000000073ffffffffffffffffffffffffffffffffffffffff163373ffffffffffffffffffffffffffffffffffffffff1614610bde576040517f30d5c90900000000000000000000000000000000000000000000000000000000815260040160405180910390fd5b50565b7f000000000000000000000000000000000000000000000000000000000000000073ffffffffffffffffffffffffffffffffffffffff163373ffffffffffffffffffffffffffffffffffffffff1614610c66576040517f30d5c90900000000000000000000000000000000000000000000000000000000815260040160405180910390fd5b50565b6000610c7482611331565b9050919050565b60008073ffffffffffffffffffffffffffffffffffffffff168273ffffffffffffffffffffffffffffffffffffffff1603610ce2576040517f8f4eb60400000000000000000000000000000000000000000000000000000000815260040160405180910390fd5b67ffffffffffffffff600560008473ffffffffffffffffffffffffffffffffffffffff1673ffffffffffffffffffffffffffffffffffffffff16815260200190815260200160002054169050919050565b606060098054610d42906120d9565b80601f0160208091040260200160405190810160405280929190818152602001828054610d6e906120d9565b8015610dbb5780601f10610d9057610100808354040283529160200191610dbb565b820191906000526020600020905b815481529060010190602001808311610d9e57829003601f168201915b5050505050905090565b60007f0000000000000000000000000000000000000000000000000000000000000000905090565b606060038054610dfc906120d9565b80601f0160208091040260200160405190810160405280929190818152602001828054610e28906120d9565b8015610e755780601f10610e4a57610100808354040283529160200191610e75565b820191906000526020600020905b815481529060010190602001808311610e5857829003601f168201915b5050505050905090565b6000662386f26fc10000905090565b6000610e98610e7f565b9050601e82610ea5610800565b610eaf91906122c8565b1115610ee7576040517f2b273f4300000000000000000000000000000000000000000000000000000000815260040160405180910390fd5b600382600a60003373ffffffffffffffffffffffffffffffffffffffff1673ffffffffffffffffffffffffffffffffffffffff16815260200190815260200160002054610f3491906122c8565b1115610f6c576040517fb5b0acfa00000000000000000000000000000000000000000000000000000000815260040160405180910390fd5b8181610f7891906122fc565b341015610fb1576040517f69cd1d6d00000000000000000000000000000000000000000000000000000000815260040160405180910390fd5b81600a60003373ffffffffffffffffffffffffffffffffffffffff1673ffffffffffffffffffffffffffffffffffffffff168152602001908152602001600020600082825461100091906122c8565b9250508190555061101133836114c7565b5050565b8060076000611022611324565b73ffffffffffffffffffffffffffffffffffffffff1673ffffffffffffffffffffffffffffffffffffffff16815260200190815260200160002060008473ffffffffffffffffffffffffffffffffffffffff1673ffffffffffffffffffffffffffffffffffffffff16815260200190815260200160002060006101000a81548160ff0219169083151502179055508173ffffffffffffffffffffffffffffffffffffffff166110cf611324565b73ffffffffffffffffffffffffffffffffffffffff167f17307eab39ab6107e8899845ad3d59bd9653f200f220920489ca2b5937696c31836040516111149190611aba565b60405180910390a35050565b61112b848484610817565b60008373ffffffffffffffffffffffffffffffffffffffff163b1461118d57611156848484846114e5565b61118c576040517fd1a57ed600000000000000000000000000000000000000000000000000000000815260040160405180910390fd5b5b50505050565b6000600854905090565b60606111a8826112c5565b6111e7576040517f08c379a00000000000000000000000000000000000000000000000000000000081526004016111de9061238a565b60405180910390fd5b60096111f283611635565b6040516020016112039291906124b5565b6040516020818303038152906040529050919050565b600a6020528060005260406000206000915090505481565b6000600760008473ffffffffffffffffffffffffffffffffffffffff1673ffffffffffffffffffffffffffffffffffffffff16815260200190815260200160002060008373ffffffffffffffffffffffffffffffffffffffff1673ffffffffffffffffffffffffffffffffffffffff16815260200190815260200160002060009054906101000a900460ff16905092915050565b6000816112d061132c565b111580156112df575060005482105b801561131d575060007c0100000000000000000000000000000000000000000000000000000000600460008581526020019081526020016000205416145b9050919050565b600033905090565b600090565b6000808290508061134061132c565b116113c6576000548110156113c55760006004600083815260200190815260200160002054905060007c01000000000000000000000000000000000000000000000000000000008216036113c3575b600081036113b957600460008360019003935083815260200190815260200160002054905061138f565b80925050506113f8565b505b5b6040517fdf2d9b4200000000000000000000000000000000000000000000000000000000815260040160405180910390fd5b919050565b60008060006006600085815260200190815260200160002090508092508254915050915091565b600073ffffffffffffffffffffffffffffffffffffffff8316925073ffffffffffffffffffffffffffffffffffffffff821691508382148383141790509392505050565b50505050565b60008060e883901c905060e8611485868684611795565b62ffffff16901b9150509392505050565b600073ffffffffffffffffffffffffffffffffffffffff83169250814260a01b178317905092915050565b50505050565b6114e182826040518060200160405280600081525061179e565b5050565b60008373ffffffffffffffffffffffffffffffffffffffff1663150b7a0261150b611324565b8786866040518563ffffffff1660e01b815260040161152d9493929190612539565b6020604051808303816000875af192505050801561156957506040513d601f19601f82011682018060405250810190611566919061259a565b60015b6115e2573d8060008114611599576040519150601f19603f3d011682016040523d82523d6000602084013e61159e565b606091505b5060008151036115da576040517fd1a57ed600000000000000000000000000000000000000000000000000000000815260040160405180910390fd5b805181602001fd5b63150b7a0260e01b7bffffffffffffffffffffffffffffffffffffffffffffffffffffffff1916817bffffffffffffffffffffffffffffffffffffffffffffffffffffffff191614915050949350505050565b60606000820361167c576040518060400160405280600181526020017f30000000000000000000000000000000000000000000000000000000000000008152509050611790565b600082905060005b600082146116ae578080611697906125c7565b915050600a826116a7919061263e565b9150611684565b60008167ffffffffffffffff8111156116ca576116c9611d39565b5b6040519080825280601f01601f1916602001820160405280156116fc5781602001600182028036833780820191505090505b5090505b6000851461178957600182611715919061266f565b9150600a8561172491906126a3565b603061173091906122c8565b60f81b818381518110611746576117456126d4565b5b60200101907effffffffffffffffffffffffffffffffffffffffffffffffffffffffffffff1916908160001a905350600a85611782919061263e565b9450611700565b8093505050505b919050565b60009392505050565b6117a8838361183b565b60008373ffffffffffffffffffffffffffffffffffffffff163b1461183657600080549050600083820390505b6117e860008683806001019450866114e5565b61181e576040517fd1a57ed600000000000000000000000000000000000000000000000000000000815260040160405180910390fd5b8181106117d557816000541461183357600080fd5b50505b505050565b6000805490506000820361187b576040517fb562e8dd00000000000000000000000000000000000000000000000000000000815260040160405180910390fd5b6118886000848385611468565b600160406001901b178202600560008573ffffffffffffffffffffffffffffffffffffffff1673ffffffffffffffffffffffffffffffffffffffff168152602001908152602001600020600082825401925050819055506118ff836118f0600086600061146e565b6118f9856119f6565b17611496565b6004600083815260200190815260200160002081905550600080838301905073ffffffffffffffffffffffffffffffffffffffff85169150828260007fddf252ad1be2c89b69c2b068fc378daa952ba7f163c4a11628f55a4df523b3ef600080a4600183015b8181146119a057808360007fddf252ad1be2c89b69c2b068fc378daa952ba7f163c4a11628f55a4df523b3ef600080a4600181019050611965565b50600082036119db576040517f2e07630000000000000000000000000000000000000000000000000000000000815260040160405180910390fd5b8060008190555050506119f160008483856114c1565b505050565b60006001821460e11b9050919050565b6000604051905090565b600080fd5b600080fd5b60007fffffffff0000000000000000000000000000000000000000000000000000000082169050919050565b611a4f81611a1a565b8114611a5a57600080fd5b50565b600081359050611a6c81611a46565b92915050565b600060208284031215611a8857611a87611a10565b5b6000611a9684828501611a5d565b91505092915050565b60008115159050919050565b611ab481611a9f565b82525050565b6000602082019050611acf6000830184611aab565b92915050565b600081519050919050565b600082825260208201905092915050565b60005b83811015611b0f578082015181840152602081019050611af4565b60008484015250505050565b6000601f19601f8301169050919050565b6000611b3782611ad5565b611b418185611ae0565b9350611b51818560208601611af1565b611b5a81611b1b565b840191505092915050565b60006020820190508181036000830152611b7f8184611b2c565b905092915050565b6000819050919050565b611b9a81611b87565b8114611ba557600080fd5b50565b600081359050611bb781611b91565b92915050565b600060208284031215611bd357611bd2611a10565b5b6000611be184828501611ba8565b91505092915050565b600073ffffffffffffffffffffffffffffffffffffffff82169050919050565b6000611c1582611bea565b9050919050565b611c2581611c0a565b82525050565b6000602082019050611c406000830184611c1c565b92915050565b611c4f81611c0a565b8114611c5a57600080fd5b50565b600081359050611c6c81611c46565b92915050565b60008060408385031215611c8957611c88611a10565b5b6000611c9785828601611c5d565b9250506020611ca885828601611ba8565b9150509250929050565b611cbb81611b87565b82525050565b6000602082019050611cd66000830184611cb2565b92915050565b600080600060608486031215611cf557611cf4611a10565b5b6000611d0386828701611c5d565b9350506020611d1486828701611c5d565b9250506040611d2586828701611ba8565b9150509250925092565b600080fd5b600080fd5b7f4e487b7100000000000000000000000000000000000000000000000000000000600052604160045260246000fd5b611d7182611b1b565b810181811067ffffffffffffffff82111715611d9057611d8f611d39565b5b80604052505050565b6000611da3611a06565b9050611daf8282611d68565b919050565b600067ffffffffffffffff821115611dcf57611dce611d39565b5b611dd882611b1b565b9050602081019050919050565b82818337600083830152505050565b6000611e07611e0284611db4565b611d99565b905082815260208101848484011115611e2357611e22611d34565b5b611e2e848285611de5565b509392505050565b600082601f830112611e4b57611e4a611d2f565b5b8135611e5b848260208601611df4565b91505092915050565b600060208284031215611e7a57611e79611a10565b5b600082013567ffffffffffffffff811115611e9857611e97611a15565b5b611ea484828501611e36565b91505092915050565b600060208284031215611ec357611ec2611a10565b5b6000611ed184828501611c5d565b91505092915050565b611ee381611a9f565b8114611eee57600080fd5b50565b600081359050611f0081611eda565b92915050565b60008060408385031215611f1d57611f1c611a10565b5b6000611f2b85828601611c5d565b9250506020611f3c85828601611ef1565b9150509250929050565b600067ffffffffffffffff821115611f6157611f60611d39565b5b611f6a82611b1b565b9050602081019050919050565b6000611f8a611f8584611f46565b611d99565b905082815260208101848484011115611fa657611fa5611d34565b5b611fb1848285611de5565b509392505050565b600082601f830112611fce57611fcd611d2f565b5b8135611fde848260208601611f77565b91505092915050565b6000806000806080858703121561200157612000611a10565b5b600061200f87828801611c5d565b945050602061202087828801611c5d565b935050604061203187828801611ba8565b925050606085013567ffffffffffffffff81111561205257612051611a15565b5b61205e87828801611fb9565b91505092959194509250565b6000806040838503121561208157612080611a10565b5b600061208f85828601611c5d565b92505060206120a085828601611c5d565b9150509250929050565b7f4e487b7100000000000000000000000000000000000000000000000000000000600052602260045260246000fd5b600060028204905060018216806120f157607f821691505b602082108103612104576121036120aa565b5b50919050565b60008190508160005260206000209050919050565b600082821b905092915050565b60006008830261215c7fffffffffffffffffffffffffffffffffffffffffffffffffffffffffffffffff8261211f565b612166868361211f565b95508019841693508086168417925050509392505050565b6000819050919050565b60006121a361219e61219984611b87565b61217e565b611b87565b9050919050565b6000819050919050565b6121bd83612188565b6121d16121c9826121aa565b84845461212c565b825550505050565b600090565b6121e66121d9565b6121f18184846121b4565b505050565b81811015612214576122096000826121de565b6001810190506121f6565b5050565b600082821c905092915050565b600061223660001984600802612218565b1980831691505092915050565b8281101561226857848901518255600182019150602085019450602081019050612243565b868310156122855784890151612281601f891682612225565b8355505b600160028802018855505050505050505050565b7f4e487b7100000000000000000000000000000000000000000000000000000000600052601160045260246000fd5b60006122d382611b87565b91506122de83611b87565b92508282019050808211156122f6576122f5612299565b5b92915050565b600061230782611b87565b915061231283611b87565b925082820261232081611b87565b9150828204841483151761233757612336612299565b5b5092915050565b7f55524920717565727920666f72206e6f6e6578697374656e7420746f6b656e00600082015250565b6000612374601f83611ae0565b915061237f8261233e565b602082019050919050565b600060208201905081810360008301526123a381612367565b9050919050565b600081905092915050565b600081546123c2816120d9565b6123cc81866123aa565b945060018216600081146123e757600181146123fc5761242f565b60ff198316865281151582028601935061242f565b6124058561210a565b60005b8381101561242757815481890152600182019150602081019050612408565b838801955050505b50505092915050565b600061244382611ad5565b61244d81856123aa565b935061245d818560208601611af1565b80840191505092915050565b7f2e6a736f6e000000000000000000000000000000000000000000000000000000600082015250565b600061249f6005836123aa565b91506124aa82612469565b600582019050919050565b60006124c182856123b5565b91506124cd8284612438565b91506124d882612492565b91508190509392505050565b600081519050919050565b600082825260208201905092915050565b600061250b826124e4565b61251581856124ef565b9350612525818560208601611af1565b61252e81611b1b565b840191505092915050565b600060808201905061254e6000830187611c1c565b61255b6020830186611c1c565b6125686040830185611cb2565b818103606083015261257a8184612500565b905095945050505050565b60008151905061259481611a46565b92915050565b6000602082840312156125b0576125af611a10565b5b60006125be84828501612585565b91505092915050565b60006125d282611b87565b91507fffffffffffffffffffffffffffffffffffffffffffffffffffffffffffffffff820361260457612603612299565b5b600182019050919050565b7f4e487b7100000000000000000000000000000000000000000000000000000000600052601260045260246000fd5b600061264982611b87565b915061265483611b87565b9250826126645761266361260f565b5b828204905092915050565b600061267a82611b87565b915061268583611b87565b925082820390508181111561269d5761269c612299565b5b92915050565b60006126ae82611b87565b91506126b983611b87565b9250826126c9576126c861260f565b5b828206905092915050565b7f4e487b7100000000000000000000000000000000000000000000000000000000600052603260045260246000fdfea264697066735822122014b81e3f69a03ce0f13d19d382d5b2022de520465eb4166b6535d6046997044d64736f6c63430008110033",
  "devdoc": {
    "kind": "dev",
    "methods": {
      "approve(address,uint256)": {
        "details": "Gives permission to `to` to transfer `tokenId` token to another account. The approval is cleared when the token is transferred. Only a single account can be approved at a time, so approving the zero address clears previous approvals. Requirements: - The caller must own the token or be an approved operator. - `tokenId` must exist. Emits an {Approval} event."
      },
      "balanceOf(address)": {
        "details": "Returns the number of tokens in `owner`'s account."
      },
      "getApproved(uint256)": {
        "details": "Returns the account approved for `tokenId` token. Requirements: - `tokenId` must exist."
      },
      "isApprovedForAll(address,address)": {
        "details": "Returns if the `operator` is allowed to manage all of the assets of `owner`. See {setApprovalForAll}."
      },
      "name()": {
        "details": "Returns the token collection name."
      },
      "ownerOf(uint256)": {
        "details": "Returns the owner of the `tokenId` token. Requirements: - `tokenId` must exist."
      },
      "safeTransferFrom(address,address,uint256)": {
        "details": "Equivalent to `safeTransferFrom(from, to, tokenId, '')`."
      },
      "safeTransferFrom(address,address,uint256,bytes)": {
        "details": "Safely transfers `tokenId` token from `from` to `to`. Requirements: - `from` cannot be the zero address. - `to` cannot be the zero address. - `tokenId` token must exist and be owned by `from`. - If the caller is not `from`, it must be approved to move this token by either {approve} or {setApprovalForAll}. - If `to` refers to a smart contract, it must implement {IERC721Receiver-onERC721Received}, which is called upon a safe transfer. Emits a {Transfer} event."
      },
      "setApprovalForAll(address,bool)": {
        "details": "Approve or remove `operator` as an operator for the caller. Operators can call {transferFrom} or {safeTransferFrom} for any token owned by the caller. Requirements: - The `operator` cannot be the caller. Emits an {ApprovalForAll} event."
      },
      "supportsInterface(bytes4)": {
        "details": "Returns true if this contract implements the interface defined by `interfaceId`. See the corresponding [EIP section](https://eips.ethereum.org/EIPS/eip-165#how-interfaces-are-identified) to learn more about how these ids are created. This function call must use less than 30000 gas."
      },
      "symbol()": {
        "details": "Returns the token collection symbol."
      },
      "totalSupply()": {
        "details": "Returns the total number of tokens in existence. Burned tokens will reduce the count. To get the total number of tokens minted, please see {_totalMinted}."
      },
      "transferFrom(address,address,uint256)": {
        "details": "Transfers `tokenId` from `from` to `to`. Requirements: - `from` cannot be the zero address. - `to` cannot be the zero address. - `tokenId` token must be owned by `from`. - If the caller is not `from`, it must be approved to move this token by either {approve} or {setApprovalForAll}. Emits a {Transfer} event."
      }
    },
    "version": 1
  },
  "userdoc": {
    "errors": {
      "ApprovalCallerNotOwnerNorApproved()": [
        {
          "notice": "The caller must own the token or be an approved operator."
        }
      ],
      "ApprovalQueryForNonexistentToken()": [
        {
          "notice": "The token does not exist."
        }
      ],
      "BalanceQueryForZeroAddress()": [
        {
          "notice": "Cannot query the balance for the zero address."
        }
      ],
      "MintERC2309QuantityExceedsLimit()": [
        {
          "notice": "The `quantity` minted with ERC2309 exceeds the safety limit."
        }
      ],
      "MintToZeroAddress()": [
        {
          "notice": "Cannot mint to the zero address."
        }
      ],
      "MintZeroQuantity()": [
        {
          "notice": "The quantity of tokens minted must be more than zero."
        }
      ],
      "OwnerQueryForNonexistentToken()": [
        {
          "notice": "The token does not exist."
        }
      ],
      "OwnershipNotInitializedForExtraData()": [
        {
          "notice": "The `extraData` cannot be set on an unintialized ownership slot."
        }
      ],
      "TransferCallerNotOwnerNorApproved()": [
        {
          "notice": "The caller must own the token or be an approved operator."
        }
      ],
      "TransferFromIncorrectOwner()": [
        {
          "notice": "The token must be owned by `from`."
        }
      ],
      "TransferToNonERC721ReceiverImplementer()": [
        {
          "notice": "Cannot safely transfer to a contract that does not implement the ERC721Receiver interface."
        }
      ],
      "TransferToZeroAddress()": [
        {
          "notice": "Cannot transfer to the zero address."
        }
      ],
      "URIQueryForNonexistentToken()": [
        {
          "notice": "The token does not exist."
        }
      ]
    },
    "kind": "user",
    "methods": {},
    "version": 1
  },
  "storageLayout": {
    "storage": [
      {
        "astId": 317,
        "contract": "contracts/NFTIsERC721A.sol:NFTIsERC721A",
        "label": "_currentIndex",
        "offset": 0,
        "slot": "0",
        "type": "t_uint256"
      },
      {
        "astId": 319,
        "contract": "contracts/NFTIsERC721A.sol:NFTIsERC721A",
        "label": "_burnCounter",
        "offset": 0,
        "slot": "1",
        "type": "t_uint256"
      },
      {
        "astId": 321,
        "contract": "contracts/NFTIsERC721A.sol:NFTIsERC721A",
        "label": "_name",
        "offset": 0,
        "slot": "2",
        "type": "t_string_storage"
      },
      {
        "astId": 323,
        "contract": "contracts/NFTIsERC721A.sol:NFTIsERC721A",
        "label": "_symbol",
        "offset": 0,
        "slot": "3",
        "type": "t_string_storage"
      },
      {
        "astId": 327,
        "contract": "contracts/NFTIsERC721A.sol:NFTIsERC721A",
        "label": "_packedOwnerships",
        "offset": 0,
        "slot": "4",
        "type": "t_mapping(t_uint256,t_uint256)"
      },
      {
        "astId": 331,
        "contract": "contracts/NFTIsERC721A.sol:NFTIsERC721A",
        "label": "_packedAddressData",
        "offset": 0,
        "slot": "5",
        "type": "t_mapping(t_address,t_uint256)"
      },
      {
        "astId": 336,
        "contract": "contracts/NFTIsERC721A.sol:NFTIsERC721A",
        "label": "_tokenApprovals",
        "offset": 0,
        "slot": "6",
        "type": "t_mapping(t_uint256,t_struct(TokenApprovalRef)249_storage)"
      },
      {
        "astId": 342,
        "contract": "contracts/NFTIsERC721A.sol:NFTIsERC721A",
        "label": "_operatorApprovals",
        "offset": 0,
        "slot": "7",
        "type": "t_mapping(t_address,t_mapping(t_address,t_bool))"
      },
      {
        "astId": 2082,
        "contract": "contracts/NFTIsERC721A.sol:NFTIsERC721A",
        "label": "s_saleStartTime",
        "offset": 0,
        "slot": "8",
        "type": "t_uint256"
      },
      {
        "astId": 2086,
        "contract": "contracts/NFTIsERC721A.sol:NFTIsERC721A",
        "label": "s_baseURI",
        "offset": 0,
        "slot": "9",
        "type": "t_string_storage"
      },
      {
        "astId": 2090,
        "contract": "contracts/NFTIsERC721A.sol:NFTIsERC721A",
        "label": "s_amountNFTsPerWallet",
        "offset": 0,
        "slot": "10",
        "type": "t_mapping(t_address,t_uint256)"
      }
    ],
    "types": {
      "t_address": {
        "encoding": "inplace",
        "label": "address",
        "numberOfBytes": "20"
      },
      "t_bool": {
        "encoding": "inplace",
        "label": "bool",
        "numberOfBytes": "1"
      },
      "t_mapping(t_address,t_bool)": {
        "encoding": "mapping",
        "key": "t_address",
        "label": "mapping(address => bool)",
        "numberOfBytes": "32",
        "value": "t_bool"
      },
      "t_mapping(t_address,t_mapping(t_address,t_bool))": {
        "encoding": "mapping",
        "key": "t_address",
        "label": "mapping(address => mapping(address => bool))",
        "numberOfBytes": "32",
        "value": "t_mapping(t_address,t_bool)"
      },
      "t_mapping(t_address,t_uint256)": {
        "encoding": "mapping",
        "key": "t_address",
        "label": "mapping(address => uint256)",
        "numberOfBytes": "32",
        "value": "t_uint256"
      },
      "t_mapping(t_uint256,t_struct(TokenApprovalRef)249_storage)": {
        "encoding": "mapping",
        "key": "t_uint256",
        "label": "mapping(uint256 => struct ERC721A.TokenApprovalRef)",
        "numberOfBytes": "32",
        "value": "t_struct(TokenApprovalRef)249_storage"
      },
      "t_mapping(t_uint256,t_uint256)": {
        "encoding": "mapping",
        "key": "t_uint256",
        "label": "mapping(uint256 => uint256)",
        "numberOfBytes": "32",
        "value": "t_uint256"
      },
      "t_string_storage": {
        "encoding": "bytes",
        "label": "string",
        "numberOfBytes": "32"
      },
      "t_struct(TokenApprovalRef)249_storage": {
        "encoding": "inplace",
        "label": "struct ERC721A.TokenApprovalRef",
        "members": [
          {
            "astId": 248,
            "contract": "contracts/NFTIsERC721A.sol:NFTIsERC721A",
            "label": "value",
            "offset": 0,
            "slot": "0",
            "type": "t_address"
          }
        ],
        "numberOfBytes": "32"
      },
      "t_uint256": {
        "encoding": "inplace",
        "label": "uint256",
        "numberOfBytes": "32"
      }
    }
  }
}